S0250000414456495449595F434F4D4D5F626561636F6E496E74657272757074732E7372656353
S11300000C94FE000C941F010C941F010C941F010E
S11300100C941F010C941F010C941F010C941F01DC
S11300200C941F010C941F010C941F010C941F01CC
S11300300C941F010C941F010C94BA010C941F0121
S11300400C941F010C941F010C941F010C941F01AC
S11300500C941F010C941F010C941F010C941F019C
S11300600C941F010C941F010C941F010C941F018C
S11300700C941F010C941F010C941F010C941F017C
S11300800C941F010C941F010C941F010C941F016C
S11300900C941F010C941F010C941F010C941F015C
S11300A00C941F010C941F010C941F010C941F014C
S11300B00C941F010C941F010C941F010C941F013C
S11300C00C941F010C941F010C941F010C941F012C
S11300D00C941F010C941F010C941F010C941F011C
S11300E00C941F010C941F010C941F010C941F010C
S11300F00C941F010C941F010C941F010C941F01FC
S11301000C941F010C941F010C941F010C941F01EB
S11301100C941F010C941F010C941F010C941F01DB
S11301200C941F010C941F010C941F010C941F01CB
S11301300C941F010C941F010C941F010C941F01BB
S11301400C941F010C941F010C941F010C941F01AB
S11301500C941F010C941F010C941F010C941F019B
S11301600C941F010C941F010C941F010C941F018B
S11301700C941F010C941F010C941F010C941F017B
S11301800C941F010C941F010C941F010C941F016B
S11301900C941F010C941F010C941F010C941F015B
S11301A00C941F010C941F010C941F010C941F014B
S11301B00C941F010C941F010C941F010C941F013B
S11301C00C941F010C941F010C941F010C941F012B
S11301D00C941F010C941F010C941F010C941F011B
S11301E00C941F010C941F010C941F010C941F010B
S11301F00C941F010C941F010C941F0111241FBEA9
S1130200CFEFCDBFDFE3DEBF00E00CBF10E2A0E024
S1130210B0E2E2EEF4E000E00BBF02C007900D9202
S1130220A03EB107D9F724E2A0EEB0E201C01D92CE
S1130230A430B207E1F70E944F020C946F020C94B1
S11302400000CF92DF92EF92FF920F931F93CF9310
S1130250DF93CDB7DEB74DB75EB7FC010190002048
S1130260E9F731978F01081B190B78019801220FC8
S1130270331F6DB77EB7621B730B6DBF7EBF6F5F9D
S11302807F4F10161106D4F4FC01DB01800F911F7F
S11302900F2EFAE1CF2ED12CF02D2191203221F412
S11302A0CD92DC92119706C030E0215431092D9390
S11302B03C9311971296E817F90779F7C801880F4C
S11302C0991F880F991F880F991F80930224909378
S11302D00324A2EEB0E222E034E2FD0182E0819345
S11302E0E217F307E1F71E141F041CF5000F111F9A
S11302F0000F111F000F111F0E511F4D09C08191D6
S11303008D93A217B307D9F7D9010217130789F000
S1130310FB0181919191BF01FC01EE0FFF1FEE0FD4
S1130320FF1FEE0FFF1FE050F04E9D01285F3F4F6F
S1130330E6CF82E08093A106E0EAF0E08281846067
S11303408283E0E0F8E085E08083118283E08683A5
S113035084E690E086A397A310A211A278944DBFDF
S11303605EBFDF91CF911F910F91FF90EF90DF90CF
S1130370CF9008951F920F920FB60F9211240BB6CF
S11303800F922F933F938F939F93EF93FF93E0915B
S1130390E020F091E120EE51FF4D808181110AC0EF
S11303A088EB9BE0809326089093270882E0809353
S11303B0A50650C0E091E020F091E120EE51FF4D00
S11303C08081813051F488E293E2809326089093EF
S11303D0270882E08093A5063DC0E091E020F091DB
S11303E0E120EE51FF4D8081833051F488EB9BE096
S11303F0809326089093270882E08093A6062AC05B
S1130400E091E020F091E120EE51FF4D80818430B5
S113041051F488E293E2809326089093270882E0BF
S11304208093A60617C0E091E020F091E120EE5100
S1130430FF4D8081853051F480EE9EE28093260842
S11304409093270882E08093A60604C08091E02060
S11304509091E1208091E0209091E1200196809399
S1130460E0209093E1202091E0203091E1208091E0
S11304700224909103242817390721F481E0809302
S11304800608F894FF91EF919F918F913F912F91DE
S11304900F900BBE0F900FBE0F901F90189588ED14
S11304A090E20E94210180E48093A106A5EAB6E0CF
S11304B0E6EAF6E02FE73AE196E02150304090403A
S11304C0E1F700C000008C932FE73AE196E0215059
S11304D030409040E1F700C000008083EBCFF894F7
S10504E0FFCF48
S11304E200030104020202020103000300030004E8
S11304F201030003010300040103000300040202D8
S113050200040202020202020003000301030004C7
S113051201030103000402020003000300030004B8
S113052200030004020202020003010301030104A6
S11305320103000301040202000301030003000497
S11305420103010402020202010300040202020284
S11305520103010301040202000301030103000475
S11305620103010300030104000301030004020266
S11305720003000300040202010402020202020256
S11305820003000301040202000300030003010448
S11305920003010301040202010300030003010436
S11305A20103000301030104010301030003000426
S11305B20202020202020205534F53204F534F001C
S9030000FC
